:020000040800F2
:100000001005002045010008B31C0008ED1B000886
:10001000B11C0008ED020008AD1F00080000000040
:10002000000000000000000000000000B71C0008F5
:100030002703000800000000B51C0008B91C0008D8
:100040005F0100085F0100085F0100085F01000810
:100050005F0100085F0100085F0100085F01000800
:100060005F0100085F0100085F010008F10200085D
:100070005F0100085F0100085F0100085F010008E0
:100080005F0100085F010008B10100085F0100087E
:100090005F0100085F0100085F0100085F010008C0
:1000A0005F0100085F0100085F0100085F010008B0
:1000B0005F0100085F0100085F0100085F010008A0
:1000C0005F0100085F0100085F0100085F01000890
:1000D0005F0100085F0100085F010008A11F000820
:1000E0005F0100085F0100085F0100085F01000870
:1000F0005F0100085F0100085F0100085F01000860
:100100005F0100085F0100085F0100085F0100084F
:100110005F0100085F0100085F0100085F0100083F
:100120005F0100085F0100085F0100085F0100082F
:10013000DFF80CD000F02AF800480047ED1F000857
:10014000100500200648804706480047FEE7FEE706
:10015000FEE7FEE7FEE7FEE7FEE7FEE7FEE7FEE777
:10016000371D000831010008D2B201E000F8012B70
:10017000491EFBD270470022F6E710B513460A4627
:1001800004461946FFF7F0FF204610BD064C074D08
:1001900006E0E06840F0010394E807009847103457
:1001A000AC42F6D3FFF7C8FFBC200008DC200008F3
:1001B000014800F0A2B900001400002070B5044608
:1001C00000688168C943C9071CD1816821F0010119
:1001D000816000F0BDFE05460FE000BF00F0B8FEF4
:1001E000401B022809D9A06A40F01000A062E06A12
:1001F00040F00100E062012070BD20688068C043CB
:10020000C007EBD0002070BD10B50146406A826A7D
:1002100012F0500F05D0006A026BBDE8104008468E
:100220001047816A41F40071816201688968C1F3F5
:10023000424107290CD1017B51B9816A21F48071B7
:100240008162816AC90403D4816A41F0010181623B
:1002500000F050F910BD10B5406A816A41F04001CC
:100260008162C16A41F00401C16200F045F910BD2C
:1002700010B5406A00F03FF910BD0000F8B5002647
:100280000446009600688168C943C90728D0816880
:1002900041F001018160134813490068B0FBF1F09F
:1002A00000E0401E00900028FBD100F051FE054602
:1002B00011E000BF00F04CFE401B02280BD9A06AE1
:1002C00040F01000A062E06A40F00100E06284F8B3
:1002D00024600120F8BD20688068C043C007E9D1D0
:1002E0000020F8BD1000002040420F00FEE7000093
:1002F000014800F085BB0000CC00002030B590F82C
:1003000040500124AC40C56B6C6004686360436876
:10031000102B036803D099600068C26030BD9A60FA
:100320000068C16030BD704772B6FEE7F8B50025C1
:100330000446009590F82400012808D0012084F894
:1003400024002046FFF73AFF060002D04BE00220CF
:10035000F8BDA06A20F4885040F00200A06202209C
:1003600000F094FE22490968B1FBF0F0400000E083
:10037000401E00900028FBD12046FFF77FFF206839
:10038000816841F00801816000F0E2FD074604E069
:1003900000F0DEFDC01B0A2811D820688068000725
:1003A000F6D42068816841F00401816000F0D0FD3E
:1003B00007460EE000F0CCFDC01B0A2809D9A06A50
:1003C00020F0020040F01000A06284F824500120C8
:1003D000F8BD206880684007ECD4A06A20F00200D5
:1003E00040F00100A06284F824503046F8BD0000BF
:1003F0001000002070470000F8B50024009490F829
:1004000024202546012A12D0012280F824204A689F
:100410001F23072A0DD20668776B521E02EB820259
:1004200093409F430B6893401F43776319E002207A
:10043000F8BD06680D2A0AD2376BD21F02EB820282
:1004400093409F430B6893401F43376309E0F76A6B
:100450000D3A02EB820293409F430B6893401F4387
:10046000F7620A68072306680A2A0AD3F7680A3A75
:1004700002EB420293409F438B6893401F43F76017
:1004800008E0376902EB420293409F438B68934038
:100490001F4337610A68102A01D0112A20D1124B5C
:1004A00002689A4217D193681B0219D4936843F4E7
:1004B000000393600968102912D10C490C4A09689D
:1004C000B1FBF2F101EB8101490000E0491E00910E
:1004D0000029FBD104E0816A41F0200181620124FE
:1004E00080F824502046F8BD002401401000002070
:1004F00040420F0070477047704710B504460068CF
:100500004168890626D50168890723D5A16AC906ED
:1005100003D4A16A41F40071A1628168C1F3424130
:10052000072910D1217B71B9416821F02001416078
:10053000A06A20F48070A062A06AC00403D4A06AFC
:1005400040F00100A0622046FFF7D4FF21686FF061
:10055000120008602068416809062ED50168490725
:100560002BD5A16AC90603D4A16A41F40051A16246
:100570008168C1F30231072909D04168490515D4C2
:100580008168C1F34241072910D1217B71B94168CB
:1005900021F080014160A06A20F48050A062A06A2E
:1005A000C00503D4A06A40F00100A0622046FFF716
:1005B00021FF21686FF00C0008602068416849063F
:1005C0000DD50068C0070AD0A06A40F48030A06250
:1005D000204600F095F821686FF00100086010BD1A
:1005E0002DE9F04104004FF000057FD0A06A0026FD
:1005F00028B9E66284F82460204600F083F820469B
:10060000FFF7DCFDA16AC90600D420B1A06A40F062
:100610001000A0626AE0A16A21F4885141F0020151
:10062000A162334923688B42E16904D1B1F5402FBF
:1006300001D14FF40021277B4FF4807C41EA47022F
:1006400061680A43A168614508D0012906D00021EC
:1006500094F814E0BEF1010F02D00AE06146F7E71A
:10066000C7B1A76A47F02007A762E76A47F001070A
:10067000E7625F6827F469470F435F602368996802
:100680001C4F394011439960A16861450BD0012985
:1006900009D00CE0DFF860E0A7690EEB47370F43A5
:1006A00047F40061E5E7218A0D05A5F5801521686D
:1006B000CB6A23F470032B43CB62216889680F4B0C
:1006C0001940914208D1E662A16A21F0020141F08D
:1006D0000101A162BDE8F081A06A20F0020040F0B3
:1006E0001000A062E06A40F00100E0620120F1E742
:1006F000003C0140FDF7E1FF00E0FFFFFE0E1FFFA1
:100700007047000070B586B000250646009501953B
:100710000295039500682549884244D12449886997
:1007200040F400708861886900F400700490886962
:1007300040F004008861886900F004000490886932
:1007400040F0080088618869032400F008000490E4
:100750000F20CDE900046946164800F0FDFA009428
:1007600069461548019400F0F7FA154C1348C4E99E
:1007700000058020C4E90250800020618000606193
:100780002020C4E90605204600F05EFA08B1FFF714
:10079000CBFD3462002211461220666200F044FC58
:1007A000122000F033FC06B070BD000000240140B0
:1007B0000010024000080140000C01400800024007
:1007C000CC0000202DE9F047894604463B490068EB
:1007D0003B4F0E1D9046884201D0B84207D1306889
:1007E00010F4702F03D001252846BDE8F08794F857
:1007F000240001280CD0012084F824002046FFF7B3
:100800003DFD05004FF0000004D084F82400EBE724
:100810000220EAE7A16A40F60162914341F4807147
:10082000A1622168B94218D1326812F4702F14D035
:10083000A16A41F48011A1623168490505D5A16A18
:1008400021F4005141F48051A162A16AC9040AD582
:10085000E16A21F00601E16206E0A26A22F4801258
:10086000A2624968E9E7E06284F82400216A154839
:100870008862216A1448C862216A144808632168A2
:100880006FF0020008602068816841F48071816027
:10089000216843464A464C31206A00F013FA20682A
:1008A0008168C1F342410729816803D041F4801176
:1008B000816099E741F4A001FAE7000000240140BB
:1008C00000280140090200087102000857020008D0
:1008D0002DE9F05F90F821100024022903D00421B3
:1008E0008163012485E001680A6822F00E020A6033
:1008F00001680A6822F001020A603F4E3E4FB215BD
:10090000DFF8F4C0DFF8F090DFF8ECA0DFF8E8B033
:10091000DFF8E4E00168783F13011502ACF1640CE4
:10092000A9F15009AAF13C0AABF1280BAEF1140E63
:100930004FF48018B14227D9B9420ED0614512D088
:1009400049451DD0514518D0594518D0714501D1A0
:10095000424615E0294EB14201D1012210E0274E56
:100960001436B14201D110220AE0244E2836B14299
:1009700006D0224A3C32914201D11A4600E02A4672
:100980001E49091F0A602BE0B94213D0614517D0F8
:10099000494522D051451DD059451DD0714501D141
:1009A00042461AE0B14202D14FF0807215E0134E78
:1009B000B14201D1012210E0104E1436B14201D1F2
:1009C00010220AE00D4E2836B14206D00B4A3C32C6
:1009D000914201D11A4600E02A46074980394A600F
:1009E000012180F82110002180F82010416B01B115
:1009F00088472046BDE8F09F80000240080402407E
:100A00002DE9F05FC16B0A6801680B68046C4FF058
:100A1000040808FA04F8844D844E854FDFF814C2A8
:100A2000DFF81492DFF814A2DFF814B2DFF814E252
:100A300018EA020F65D05FEA437862D50A68920629
:100A400003D40A6822F004020A60DFF8F0814FF450
:100A50008062016808F1140813011402414524D989
:100A6000A9420DD0B1420FD0B9421AD0614515D07C
:100A7000494515D0514501D1120312E0594501D124
:100A800004220EE0714501D140220AE06D4D14357B
:100A9000A94206D06B4A2832914201D11A4600E0A1
:100AA00022466749091F0A6029E0A94213D0B142D2
:100AB00015D0B94220D061451BD049451BD05145C6
:100AC00002D14FF4800217E0414502D14FF080621D
:100AD00012E0594501D104220EE0714501D14022B6
:100AE0000AE0584D1435A94206D0564A28329142A0
:100AF00001D11A4600E022464B4908394A60C16AD2
:100B000071E04FF0020808FA04F818EA020F70D0FA
:100B10005FEA83786DD50A68920606D40A6822F0E7
:100B20000A020A60012180F82110DFF810814FF4D9
:100B30000072016808F1140813011402414524D918
:100B4000A9420DD0B1420FD0B9421AD0614515D09B
:100B5000494515D0514501D1120312E0594501D143
:100B600002220EE0714501D120220AE0354D1435F4
:100B7000A94206D0334A2832914201D11A4600E0F8
:100B800022462F49091F0A6029E0A94213D0B14229
:100B900015D0B94220D061451BD049451BD05145E5
:100BA00002D14FF4001217E0414502D14FF000721C
:100BB00012E0594501D102220EE0714501D12022F7
:100BC0000AE0204D1435A94206D01E4A283291422F
:100BD00001D11A4600E02246134908394A60002133
:100BE00080F82010816A00291CD0BDE8F05F08471A
:100BF000FFE70825A540154214D01A0712D50A6848
:100C000022F00E020A6090F84020C36B012101FA25
:100C100002F25A60816380F82110002180F82010D0
:100C2000016BE0E7BDE8F09F080002401C000240B5
:100C30003000024044000240580002406C00024074
:100C4000080402401C04024030B560B11A4B02682F
:100C500014219A4209D2194B1344B3FBF1F18900D4
:100C6000016417490AE0012030BD134B5B42134475
:100C7000B3FBF1F1890001640F490839C163022116
:100C800080F82110136843F6F0718B43F0E90114EA
:100C90002143D0E902452C4321430469214344699F
:100CA00021438469214319431160002141630122DA
:100CB00042770177084630BD08040240F8FFFDBFC7
:100CC0000000024070B5044690F82000002501287D
:100CD0000CD0012084F8200094F821600020012E1F
:100CE00006D084F820000225284670BD022070BD81
:100CF000022684F82160A0632068066826F00106B9
:100D000006602046FFF7FAFAE06A002820680168CA
:100D100002D041F00E0106E021F0040101602068DC
:100D2000016841F00A0101602068016841F0010199
:100D30000160D9E770B5044600F00AF90546601C69
:100D400002D004480078044400F002F9401BA0429D
:100D5000FAD370BD040000202DE9F84FDFF8C891E8
:100D6000002409F1040A0AF1040B23460F270BF1B2
:100D7000040ED1E00125A54006EA0502AA4276D17B
:100D8000DFF8A8C14E68A6EB0C0866452BD00DDC39
:100D9000032E34D005DC36B3012E19D0022E2FD10C
:100DA0001BE0112E16D0122E2AD119E0B8F5881F9B
:100DB00019D006DCB8F5803F15D0B8F5801F1FD1DB
:100DC00011E0B8F5001F0ED0B8F5041F18D10AE0E5
:100DD000CB6815E0CB681B1D12E0CB6808330FE031
:100DE000CB680C330CE08B682BB1012B4FF0080360
:100DF00003D0456104E0042302E0056100E0002324
:100E0000FF2A01D8064601E000F104064FEA8405F6
:100E100001D9A5F12005D6F8008007FA05FC28EADB
:100E20000C0803FA05F548EA0508C6F800804D6885
:100E3000ED0070D53E4DAE6946F00106AE61AD697C
:100E400024F0030605F0010500953A4D06EB050C6C
:100E5000DCF80850A607360F07FA06F825EA080559
:100E6000DFF8D480404503D14FF0000825E052E080
:100E7000DFF8C880404502D14FF001081DE0DFF8DF
:100E8000C080404502D14FF0020816E0DFF8B48080
:100E9000404502D14FF003080FE0DFF8AC80404539
:100EA00002D14FF0040808E0DFF8A080404502D1ED
:100EB0004FF0050801E04FF0060808FA06F848EA86
:100EC0000508CCF808804D68D9F80060ED034D4660
:100ED00001D5164300E096432E604D68DAF80060B5
:100EE000AD03554601D5164300E096432E604D688C
:100EF000DBF80060ED025D4601D5164300E0964345
:100F00002E604D68DEF80060AD02754601D51643CF
:100F100000E096432E60641C0A681646E2407FF4A7
:100F200029AFBDE8F88F0000000401400000111057
:100F3000001002400000014000080140000C014088
:100F4000001001400014014000180140001C014045
:100F50000148806870470000040000200248816852
:100F6000027811448160704704000020074810B5E2
:100F7000016841F010010160032000F075F80020C5
:100F800000F006F800F024F8002010BD0020024018
:100F900070B50D4D04464FF47A712878B1FBF0F02E
:100FA0000A490968B1FBF0F000F0CCFB48B9102CFD
:100FB00007D200222146501E00F036F800206C6057
:100FC00070BD012070BD0000040000201000002052
:100FD0000C4808B5816941F001018161816901F026
:100FE00001010091C16941F08051C161C06900F007
:100FF000805000900448416821F0E06141F00071A8
:10100000416008BD0010024000000140002809DBDB
:1010100000F01F02012191404009800000F1E02012
:10102000C0F8001170470000F0B40E4B1B680C466E
:10103000C3F30223C3F10705042D00D90425191DAC
:10104000072901D2002300E0DB1E012606FA05F184
:10105000491E214099409E40761E16403143F0BC07
:1010600000F0A5BF0CED00E0064900F0070208689B
:101070004FF6FF03184040EA0220034A104308607D
:10108000704700000CED00E00000FA0510B52CA43C
:1010900001461DCC86B08DE81D002DA02D4C0068AA
:1010A0000490002004292FD00BDC01292FD0022925
:1010B00028D100F071F96168C1F38131491C490000
:1010C0001EE0082920D010291CD161682268D201B5
:1010D00018D5C1F38342C9031DF8020009D5616820
:1010E00004AAC1F34041515C1B4AB2FBF1F14843F1
:1010F00001E01A4948436168490203D440000321D2
:10110000B0FBF1F006B010BD00F056F9FAE7226A24
:10111000C2F30121012903D1920701D5C803F1E7E8
:10112000022905D1626A920702D549F64040E9E7F3
:101130000329E7D121688903E4D54FF22440E1E790
:1011400002030405060708090A0B0C0D0E0F101008
:10115000010200000010024000127A0000093D0068
:101160002DE9F84305460078354CC00754D0E069B6
:101170000026C00008D4E06940F08050E061E069DA
:10118000012600F0805000902E480168C90512D455
:101190000168804641F480710160FFF7D9FE07467F
:1011A00005E000BFFFF7D4FEC01B642823D8D8F8A1
:1011B0000000C005F6D5206A10F4407021D0A9883F
:1011C00001F4407181421CD0206A1F49012220F4A1
:1011D00040700A6000220A602062C00711D0FFF749
:1011E000B7FE074641F2883808E000BFFFF7B0FEBF
:1011F000C11B414502D90320BDE8F883206A80075E
:10120000F4D5206A696820F44070084320621EB15A
:10121000E06920F08050E0612878800705D560689B
:10122000A96820F44040084360602878C00605D5CE
:101230006068696920F48000084360600020DBE793
:101240000010024000700040400442422DE9F04787
:101250000F46050061D0434E306800F00700B842E9
:1012600009D2306820F0070038433060306800F061
:101270000700B84251D128683B4C810712D540077E
:1012800003D5606840F4E06060602878000703D50B
:10129000606840F4605060606068A96820F0F00009
:1012A000084360602878C00728D06868012810D0FB
:1012B0002168022810D0890700292EDA616821F000
:1012C000030101436160FFF743FE804641F2883924
:1012D0000DE021688903EFE78901EDE7FFF738FEAC
:1012E000A0EB0801494502D90320BDE8F0876068FA
:1012F000696800F00C00B0EB810FEFD1306800F0AE
:101300000700B8420BD9306820F00700384330603E
:10131000306800F00700B84201D00120E5E72878E6
:10132000400705D56068E96820F4E0600843606024
:101330002878000706D56068296920F4605040EAE3
:10134000C100606000F038F86168084AC1F3031119
:10135000515CC8400649086006480068FFF718FE5F
:101360000020C2E70020024000100240A420000834
:101370001000002008000020044805490068496862
:10138000044AC1F30221515CC8407047100000209C
:1013900000100240B420000804480549006849686C
:1013A000044AC1F3C221515CC840704710000020BC
:1013B00000100240B420000812A185B00FC98DE8CA
:1013C0000F0014A0144A006804905168134801F0FB
:1013D0000C03042B10D0082B0ED1C1F38343C90397
:1013E0001DF803000AD5516804AAC1F34041515CBD
:1013F0000A4A5043B0FBF1F005B070470849484332
:10140000FAE7000002030405060708090A0B0C0DA1
:101410000E0F1010010200000010024000127A00AE
:1014200000093D002DE9F84F040070D02078C04D30
:10143000C00749D06868C0F38100012807D06868F8
:10144000C0F38100022809D16868C00306D5286866
:10145000800339D560680028E7D035E06068B0F5D2
:10146000803F0BD010B1B0F5A02F11D0286820F428
:1014700080302860286820F4802002E0286840F44A
:1014800080302860606890B1FFF762FD06460AE090
:10149000286840F480202860F0E700BFFFF758FD7F
:1014A000801B642873D828688003F7D50CE0FFF709
:1014B0004FFD064605E000BFFFF74AFD801B64288C
:1014C000F0D828688003F7D420789A4E80074FF030
:1014D00001094FF0000839D5686810F00C0F07D0EB
:1014E0006868C0F38100022809D16868C00306D487
:1014F0002868800714D52069012808D110E02069E8
:10150000B0B1C6F80090FFF723FD074605E00AE1F9
:10151000FFF71EFDC01B0228C4D828688007F7D536
:101520002868616920F0F80040EAC10028600DE0F9
:10153000C6F80080FFF70CFD074604E0FFF708FD42
:10154000C01B022823D828688007F7D4207800071A
:101550002CD57948A169D9B1C0F80090FFF7F8FC03
:10156000074604E0FFF7F4FCC01B02280FD8686AA6
:101570008007F7D571484FF4FA510068B0FBF1F0DD
:10158000009000BF0098411E0091FAD20EE080E06A
:10159000C0F80080FFF7DCFC074604E0FFF7D8FC4A
:1015A000C01B022875D8686A8007F7D420784007E6
:1015B00060D5E8690027C00008D4E86940F0805091
:1015C000E861E869012700F0805000905C480168FC
:1015D000C90513D40168834641F480710160FFF7A7
:1015E000B7FC824606E000BFFFF7B2FCA0EB0A00A2
:1015F00064284ED8DBF80000C005F5D5E068012866
:101600000AD008B1052813D0286A20F0010028620A
:10161000286A20F0040002E0286A40F001002862F5
:10162000E06841F2883B98B1FFF792FC82460BE0FC
:10163000286A40F004002862EEE700BFFFF788FC4C
:10164000A0EB0A0159455AD8286A8007F6D50CE064
:10165000FFF77EFC824605E0FFF77AFCA0EB0A016B
:1016600059454CD8286A8007F6D41FB1E86920F0A4
:101670008050E861E06988B36968C1F3810102299B
:1016800044D00228C6F8608004D0FFF761FC04460D
:1016900038E034E0FFF75CFC074604E0FFF758FC55
:1016A000C01B02282BD828688001F7D4206AB0F527
:1016B000803F05D16868A16820F400300843686065
:1016C000D4E908010843696821F47411084368608B
:1016D000C6F86090FFF73CFC044606E025E000BF3A
:1016E000FFF736FC001B022809D828688001F7D5CF
:1016F0001BE000BFFFF72CFC001B022802D90320CF
:10170000BDE8F88F28688001F4D40EE00128F7D0F6
:101710006868226A00F48031914204D1616A00F461
:101720007010884201D00120EAE70020E8E70000BD
:10173000001002400000424280044242100000209B
:101740000070004010B5401EB0F1807F01D3012031
:1017500010BD4FF0E02460610F21601700F027FCFE
:101760000020A06107202061002010BD70B590F816
:101770003C20012A2CD0012480F83C40022280F831
:101780003D2003685A689D6822F070060A6832435B
:101790005A60104B02689A420ED00F4B9A420BD0FF
:1017A000B2F1804F08D00D4B9A4205D00C4B9A42B3
:1017B00002D00C4B9A4204D1496825F080031943AA
:1017C000916080F83D40002180F83C10084670BDD3
:1017D000022070BD002C0140003401400004004094
:1017E00000080040000C004010B5040003D094F83D
:1017F0003D0010B107E0012010BD002084F83C003E
:10180000204600F01FF8022084F83D00211D2068CA
:1018100000F092FA012084F8460084F83E0084F833
:101820003F0084F8400084F8410084F8420084F8C6
:10183000430084F8440084F8450084F83D0000200B
:1018400010BD000008B500680649884208D1064866
:10185000C16941F00201C161C06900F0020000905D
:1018600008BD0000000400400010024090F83D1048
:10187000012901D001207047022180F83D10006845
:101880000E4988420ED00E4988420BD0B0F1804FED
:1018900008D00C49884205D00B49884202D00B4938
:1018A000884204D1816801F00701062903D001684C
:1018B00041F001010160002070470000002C014050
:1018C000003401400004004000080040000C0040CB
:1018D00070B5044690F83C00012817D0012584F823
:1018E0003C50022084F83D002068826822F0770294
:1018F00022F47F4282600868502830D00DDC202816
:101900004DD005DC98B310283BD148E0022070BDD3
:10191000302844D0402834D139E0602828D07028BD
:1019200006D0B0F5805F2CD0B0F5005F29D10AE079
:10193000CB68D1E90121206800F044FA2068816871
:1019400041F0770109E0CB68D1E90121206800F07E
:1019500039FA2068816841F48041816011E0CA68E9
:101960004968206800F040FA5021206807E016E03E
:10197000CA684968206800F048FA6021206800F0D1
:101980002BFA84F83D50002084F83C0070BDCA68F2
:101990004968206800F028FA40212068EFE72268B3
:1019A00001461046EBE7704770B5026804461068C0
:1019B000D168536910F00F0F52D003F0010501F404
:1019C00090762E435FD0C20705D0CA0503D5E26BDF
:1019D00042F00102E263420705D5DA0703D0E26B69
:1019E00042F00202E263820705D5DA0703D0E26B18
:1019F00042F00402E263020707D501F020022A4305
:101A000003D0E26B42F00802E263E26B002A33D0BB
:101A1000800604D5880602D5204600F01EFA20680C
:101A20004069E16BC0F38010090700D428B3204659
:101A300000F005FA2068416949061AD5416921F08C
:101A400040014161606BA0B12D494163606BFEF7BD
:101A50003FFF002810D0606B416BBDE87040084725
:101A6000830610D58B060ED52046BDE8704000F0E9
:101A7000F4B92046FFF797FF70BD2046FFF793FFAC
:101A80000020E06370BD03062BD50B0629D594F822
:101A900039002128F6D1A068B0F5805F01D1206916
:101AA000B0B1206A411C2162216800784860E08C56
:101AB000401E0004000CE084E4D12068C16821F0DD
:101AC0008001C1602068C16841F04001C16070BD03
:101AD000206A0088C0F308005060206A801C2062E1
:101AE000E5E74006F3D54806F1D5D168204621F058
:101AF0004001D160202184F8391000F076F870BDE3
:101B00002F1E000870B5040004D094F83900002599
:101B100010B106E0012070BD84F83850204600F076
:101B200023F8242084F839002068C16821F400518A
:101B3000C160204600F0D8F92068016921F4904185
:101B400001612068416921F02A0141612068C16872
:101B500041F40051C160E563202084F8390084F825
:101B60003A00002070BD000030B585B0002400941C
:101B70000194029403940068184988422CD11848B3
:101B8000C16941F48021C161C16901F480210491DE
:101B9000816941F0080181618069124D00F00800FF
:101BA00004904FF480600090022001900320039085
:101BB00069462846FFF7D0F8E814CDE900046946E5
:101BC00028460294FFF7C8F8002211462720FFF7A5
:101BD0002BFA2720FFF71AFA05B030BD0048004065
:101BE00000100240000C014070477047FEE7000003
:101BF0003EB5002412480094019402940F49846079
:101C000001250160057304750561E9044460C16143
:101C1000FEF7E6FC08B172B6FEE7CDE9004569467D
:101C200007480294FEF7E8FB08B172B6FEE70448E5
:101C3000FEF77CFB0A20FFF77DF83EBD0024014043
:101C40001400002010B586B00024184800940194B8
:101C50000294039404941449059401603721C0E967
:101C6000011442F20F71C0E9031480218161FFF772
:101C7000BBFD08B172B6FEE74FF480500090694694
:101C80000A48FFF725FE08B172B6FEE72020CDE92D
:101C9000040404A90548FFF769FD002801D072B6C5
:101CA000FEE706B010BD0000000400404400002024
:101CB000FEE7FEE770477047FFF750B930B595B0C3
:101CC00028216846FEF757FA14210AA8FEF753FAAE
:101CD00018210FA8FEF74FFA01210804CDE90010E2
:101CE0000025029502240491CDE907404FF4A0108D
:101CF00009906846FFF796FB08B172B6FEE70AA99D
:101D00000F2081E831004FF48060CDE90D050221FC
:101D10000AA8FFF79BFA08B172B6FEE74FF48040BD
:101D200011900F940FA8FFF71BFA002801D072B68C
:101D3000FEE715B030BD7047F0B502681C4B1D4D75
:101D40001D4E1E4F1E4C4FF0804C984209D0A042B1
:101D500007D0604505D0A84203D0B04201D0B842B8
:101D600004D122F0700E4A6842EA0E02984209D06D
:101D7000A04207D0604505D0A84203D0B04201D0B0
:101D8000B84203D122F44075CA682A434D6922F053
:101D900080022A4302608A68C2620A6882629842AC
:101DA00001D0A04201D10969016301214161F0BD67
:101DB000002C01400004004000080040000C0040DE
:101DC0000034014010B5846842EA032224F47F44C1
:101DD0000A432243826010BD826822F070020A43E7
:101DE00042F007018160704710B5036A046A24F06D
:101DF00001040462846924F0F00444EA021423F02C
:101E00000A020A438461026210BD10B5036A23F01E
:101E1000100303628369046A23F4704343EA0232C5
:101E200024F0A00343EA01118261016210BD10B5E4
:101E3000406A0021C185C184FFF7B5FD10BD01686E
:101E4000CA6822F49072CA6001684A6922F00102ED
:101E50004A61202180F83A10704710B590F83A1086
:101E6000222901D0022010BD82684FF480539A428B
:101E700001D1016921B1816A9A421BD04AB10AE0BD
:101E80000268816A5268C2F308020A80816A891C6A
:101E900008E0026972B10268526802F07F020A70BB
:101EA000816A491C8162C18D491E0904090CC185E2
:101EB00003D016E002685268F1E70168CA6822F0B0
:101EC0002002CA600168CA6822F48072CA60016890
:101ED0004A6922F001024A61202180F83A10FFF796
:101EE00083FE002010BD000070B504460068016943
:101EF000E26821F44051114301612169A06808435F
:101F0000616908432168CA6841F20C639A4302433D
:101F1000CA6020684169A26921F44071114341619E
:101F20001E492068884202D1FFF736FA01E0FFF728
:101F300023FA00EBC00101EB00126068642180000D
:101F4000B2FBF0F3B3FBF1F36FF018067343B2FB8F
:101F5000F0F5B2FBF0F605EB8305322303EB051534
:101F6000B5FBF1F5B6FBF1F605F0F00505EB06154E
:101F7000B2FBF0F6B2FBF0F0B0FBF1F06FF018023C
:101F8000504306EB800003EB0010B0FBF1F021683A
:101F900000F00F002844886070BD00000038014048
:101FA0000148FFF701BD00008C000020FEE7090793
:101FB000090E002804DB00F1E02080F800147047CF
:101FC00000F00F0000F1E02080F8141D704702E0DF
:101FD00008C8121F08C1002AFAD1704770470020B4
:101FE00001E001C1121F002AFBD1704708B5FEF7BE
:101FF000BDFFFFF763FE2748816941F02001816141
:10200000816901F020010091816941F00401816141
:10201000816901F004010091816941F00801816149
:10202000816901F008010091416941F001014161BC
:102030004069002200F00100009011460B20FEF7DD
:10204000F3FF0B20FEF7E2FFFFF7D2FD1348124922
:102050000C2201604FF4E131416000218160C160D8
:10206000C0E904128161C161FFF74CFD08B172B68D
:10207000FEE7FFF7E7FD09484838FFF7F7FB074899
:10208000012207497838FEF79DFB6420FEF752FED7
:10209000FBE7000000100240004800408C000020D8
:1020A0000000002000000000000000000102030406
:1020B000060708090000000001020304DC200008F4
:1020C0000000002014000000CE1F0008F0200008CF
:1020D00014000020FC040000DE1F000800000000C7
:1020E0000100000010000000000000000024F400C7
:0400000508000131BD
:00000001FF
